:10000000000000308A002528A301A200FF30A207CB
:10001000031CA307031C21280330A100E630122093
:100020000628A101FC3EA000A109031C1D28FF30E9
:100030000000A00703181828A0070000A10F172828
:10004000080083138312031308008312031383161B
:10005000031788018901831287018801831603131E
:100060008501860187010317880189018312031323
:100070008601870106100130A300F4308A010520B3
:1000800006140130A300F4308A0105208A013A28C1
:080090008A0148288A014A2870
:02400E00D220BE
:02401000FF3F70
:00000001FF
